{
  "contractName": "TokenFarm",
  "abi": [
    {
      "inputs": [
        {
          "internalType": "contract IERC20",
          "name": "_dappToken",
          "type": "address"
        },
        {
          "internalType": "contract IERC20",
          "name": "_daiToken",
          "type": "address"
        }
      ],
      "stateMutability": "nonpayable",
      "type": "constructor"
    },
    {
      "inputs": [],
      "name": "daiToken",
      "outputs": [
        {
          "internalType": "contract IERC20",
          "name": "",
          "type": "address"
        }
      ],
      "stateMutability": "view",
      "type": "function",
      "constant": true
    },
    {
      "inputs": [],
      "name": "dappToken",
      "outputs": [
        {
          "internalType": "contract IERC20",
          "name": "",
          "type": "address"
        }
      ],
      "stateMutability": "view",
      "type": "function",
      "constant": true
    },
    {
      "inputs": [
        {
          "internalType": "address",
          "name": "",
          "type": "address"
        }
      ],
      "name": "hasStaked",
      "outputs": [
        {
          "internalType": "bool",
          "name": "",
          "type": "bool"
        }
      ],
      "stateMutability": "view",
      "type": "function",
      "constant": true
    },
    {
      "inputs": [
        {
          "internalType": "address",
          "name": "",
          "type": "address"
        }
      ],
      "name": "isStaking",
      "outputs": [
        {
          "internalType": "bool",
          "name": "",
          "type": "bool"
        }
      ],
      "stateMutability": "view",
      "type": "function",
      "constant": true
    },
    {
      "inputs": [],
      "name": "name",
      "outputs": [
        {
          "internalType": "string",
          "name": "",
          "type": "string"
        }
      ],
      "stateMutability": "view",
      "type": "function",
      "constant": true
    },
    {
      "inputs": [],
      "name": "owner",
      "outputs": [
        {
          "internalType": "address",
          "name": "",
          "type": "address"
        }
      ],
      "stateMutability": "view",
      "type": "function",
      "constant": true
    },
    {
      "inputs": [
        {
          "internalType": "uint256",
          "name": "",
          "type": "uint256"
        }
      ],
      "name": "stakers",
      "outputs": [
        {
          "internalType": "address",
          "name": "",
          "type": "address"
        }
      ],
      "stateMutability": "view",
      "type": "function",
      "constant": true
    },
    {
      "inputs": [
        {
          "internalType": "address",
          "name": "",
          "type": "address"
        }
      ],
      "name": "stakingBalance",
      "outputs": [
        {
          "internalType": "uint256",
          "name": "",
          "type": "uint256"
        }
      ],
      "stateMutability": "view",
      "type": "function",
      "constant": true
    },
    {
      "inputs": [
        {
          "internalType": "uint256",
          "name": "_amount",
          "type": "uint256"
        }
      ],
      "name": "stakeTokens",
      "outputs": [],
      "stateMutability": "nonpayable",
      "type": "function"
    },
    {
      "inputs": [],
      "name": "unstakeTokens",
      "outputs": [],
      "stateMutability": "nonpayable",
      "type": "function"
    },
    {
      "inputs": [],
      "name": "issueTokens",
      "outputs": [],
      "stateMutability": "nonpayable",
      "type": "function"
    },
    {
      "inputs": [
        {
          "internalType": "uint256",
          "name": "balance",
          "type": "uint256"
        }
      ],
      "name": "getCalculatedAmount",
      "outputs": [
        {
          "internalType": "uint256",
          "name": "",
          "type": "uint256"
        }
      ],
      "stateMutability": "view",
      "type": "function",
      "constant": true
    }
  ],
  "bytecode": "0x60806040526040518060400160405280600f81526020017f4461707020546f6b656e204661726d0000000000000000000000000000000000815250600090805190602001906200005192919062000150565b503480156200005f57600080fd5b506040516200176638038062001766833981810160405281019062000085919062000217565b81600260006101000a81548173ffffffffffffffffffffffffffffffffffffffff021916908373ffffffffffffffffffffffffffffffffffffffff16021790555080600360006101000a81548173ffffffffffffffffffffffffffffffffffffffff021916908373ffffffffffffffffffffffffffffffffffffffff16021790555033600160006101000a81548173ffffffffffffffffffffffffffffffffffffffff021916908373ffffffffffffffffffffffffffffffffffffffff16021790555050506200031f565b8280546200015e90620002a0565b90600052602060002090601f016020900481019282620001825760008555620001ce565b82601f106200019d57805160ff1916838001178555620001ce565b82800160010185558215620001ce579182015b82811115620001cd578251825591602001919060010190620001b0565b5b509050620001dd9190620001e1565b5090565b5b80821115620001fc576000816000905550600101620001e2565b5090565b600081519050620002118162000305565b92915050565b600080604083850312156200022b57600080fd5b60006200023b8582860162000200565b92505060206200024e8582860162000200565b9150509250929050565b6000620002658262000280565b9050919050565b6000620002798262000258565b9050919050565b600073ffffffffffffffffffffffffffffffffffffffff82169050919050565b60006002820490506001821680620002b957607f821691505b60208210811415620002d057620002cf620002d6565b5b50919050565b7f4e487b7100000000000000000000000000000000000000000000000000000000600052602260045260246000fd5b62000310816200026c565b81146200031c57600080fd5b50565b611437806200032f6000396000f3fe608060405234801561001057600080fd5b50600436106100b45760003560e01c80638da5cb5b116100715780638da5cb5b1461017b57806394fe15ca14610199578063a5ce413b146101c9578063be22f546146101d3578063c93c8f34146101f1578063fd5e6dd114610221576100b4565b806306fdde03146100b957806345bc78ab146100d75780635eb186f81461010757806360ab5852146101255780636f49712b1461012f5780637547c7a31461015f575b600080fd5b6100c1610251565b6040516100ce9190610f05565b60405180910390f35b6100f160048036038101906100ec9190610c2d565b6102df565b6040516100fe9190610f87565b60405180910390f35b61010f6102f7565b60405161011c9190610eea565b60405180910390f35b61012d61031d565b005b61014960048036038101906101449190610c2d565b610544565b6040516101569190610ecf565b60405180910390f35b61017960048036038101906101749190610c7f565b610564565b005b61018361084f565b6040516101909190610e54565b60405180910390f35b6101b360048036038101906101ae9190610c7f565b610875565b6040516101c09190610f87565b60405180910390f35b6101d1610953565b005b6101db610b2a565b6040516101e89190610eea565b60405180910390f35b61020b60048036038101906102069190610c2d565b610b50565b6040516102189190610ecf565b60405180910390f35b61023b60048036038101906102369190610c7f565b610b70565b6040516102489190610e54565b60405180910390f35b6000805461025e90611275565b80601f016020809104026020016040519081016040528092919081815260200182805461028a90611275565b80156102d75780601f106102ac576101008083540402835291602001916102d7565b820191906000526020600020905b8154815290600101906020018083116102ba57829003601f168201915b505050505081565b60056020528060005260406000206000915090505481565b600260009054906101000a900473ffffffffffffffffffffffffffffffffffffffff1681565b600160009054906101000a900473ffffffffffffffffffffffffffffffffffffffff1673ffffffffffffffffffffffffffffffffffffffff163373ffffffffffffffffffffffffffffffffffffffff16146103ad576040517f08c379a00000000000000000000000000000000000000000000000000000000081526004016103a490610f27565b60405180910390fd5b60005b600480549050811015610541576000600482815481106103f9577f4e487b7100000000000000000000000000000000000000000000000000000000600052603260045260246000fd5b9060005260206000200160009054906101000a900473ffffffffffffffffffffffffffffffffffffffff1690506000600560008373ffffffffffffffffffffffffffffffffffffffff1673ffffffffffffffffffffffffffffffffffffffff168152602001908152602001600020549050600081111561052c57600260009054906101000a900473ffffffffffffffffffffffffffffffffffffffff1673ffffffffffffffffffffffffffffffffffffffff1663a9059cbb836104bb84610875565b6040518363ffffffff1660e01b81526004016104d8929190610ea6565b602060405180830381600087803b1580156104f257600080fd5b505af1158015610506573d6000803e3d6000fd5b505050506040513d601f19601f8201168201806040525081019061052a9190610c56565b505b50508080610539906112a7565b9150506103b0565b50565b60076020528060005260406000206000915054906101000a900460ff1681565b600081116105a7576040517f08c379a000000000000000000000000000000000000000000000000000000000815260040161059e90610f67565b60405180910390fd5b600360009054906101000a900473ffffffffffffffffffffffffffffffffffffffff1673ffffffffffffffffffffffffffffffffffffffff166323b872dd3330846040518463ffffffff1660e01b815260040161060693929190610e6f565b602060405180830381600087803b15801561062057600080fd5b505af1158015610634573d6000803e3d6000fd5b505050506040513d601f19601f820116820180604052508101906106589190610c56565b5080600560003373ffffffffffffffffffffffffffffffffffffffff1673ffffffffffffffffffffffffffffffffffffffff168152602001908152602001600020546106a49190610fbe565b600560003373ffffffffffffffffffffffffffffffffffffffff1673ffffffffffffffffffffffffffffffffffffffff16815260200190815260200160002081905550600660003373ffffffffffffffffffffffffffffffffffffffff1673ffffffffffffffffffffffffffffffffffffffff16815260200190815260200160002060009054906101000a900460ff1661079c576004339080600181540180825580915050600190039060005260206000200160009091909190916101000a81548173ffffffffffffffffffffffffffffffffffffffff021916908373ffffffffffffffffffffffffffffffffffffffff1602179055505b6001600760003373ffffffffffffffffffffffffffffffffffffffff1673ffffffffffffffffffffffffffffffffffffffff16815260200190815260200160002060006101000a81548160ff0219169083151502179055506001600660003373ffffffffffffffffffffffffffffffffffffffff1673ffffffffffffffffffffffffffffffffffffffff16815260200190815260200160002060006101000a81548160ff02191690831515021790555050565b600160009054906101000a900473ffffffffffffffffffffffffffffffffffffffff1681565b60008073777a68032a88e5a84678a77af2cd65a7b3c0775a905060008173ffffffffffffffffffffffffffffffffffffffff1663feaf968c6040518163ffffffff1660e01b815260040160a06040518083038186803b1580156108d757600080fd5b505afa1580156108eb573d6000803e3d6000fd5b505050506040513d601f19601f8201168201806040525081019061090f9190610ca8565b5050509150506000670de0b6b3a76400006402540be400836109319190611045565b8661093c919061115c565b6109469190611014565b9050809350505050919050565b6000600560003373ffffffffffffffffffffffffffffffffffffffff1673ffffffffffffffffffffffffffffffffffffffff168152602001908152602001600020549050600081116109da576040517f08c379a00000000000000000000000000000000000000000000000000000000081526004016109d190610f47565b60405180910390fd5b600360009054906101000a900473ffffffffffffffffffffffffffffffffffffffff1673ffffffffffffffffffffffffffffffffffffffff1663a9059cbb33836040518363ffffffff1660e01b8152600401610a37929190610ea6565b602060405180830381600087803b158015610a5157600080fd5b505af1158015610a65573d6000803e3d6000fd5b505050506040513d601f19601f82011682018060405250810190610a899190610c56565b506000600560003373ffffffffffffffffffffffffffffffffffffffff1673ffffffffffffffffffffffffffffffffffffffff168152602001908152602001600020819055506000600760003373ffffffffffffffffffffffffffffffffffffffff1673ffffffffffffffffffffffffffffffffffffffff16815260200190815260200160002060006101000a81548160ff02191690831515021790555050565b600360009054906101000a900473ffffffffffffffffffffffffffffffffffffffff1681565b60066020528060005260406000206000915054906101000a900460ff1681565b60048181548110610b8057600080fd5b906000526020600020016000915054906101000a900473ffffffffffffffffffffffffffffffffffffffff1681565b600081359050610bbe8161138e565b92915050565b600081519050610bd3816113a5565b92915050565b600081519050610be8816113bc565b92915050565b600081359050610bfd816113d3565b92915050565b600081519050610c12816113d3565b92915050565b600081519050610c27816113ea565b92915050565b600060208284031215610c3f57600080fd5b6000610c4d84828501610baf565b91505092915050565b600060208284031215610c6857600080fd5b6000610c7684828501610bc4565b91505092915050565b600060208284031215610c9157600080fd5b6000610c9f84828501610bee565b91505092915050565b600080600080600060a08688031215610cc057600080fd5b6000610cce88828901610c18565b9550506020610cdf88828901610bd9565b9450506040610cf088828901610c03565b9350506060610d0188828901610c03565b9250506080610d1288828901610c18565b9150509295509295909350565b610d28816111b6565b82525050565b610d37816111c8565b82525050565b610d468161121e565b82525050565b6000610d5782610fa2565b610d618185610fad565b9350610d71818560208601611242565b610d7a8161137d565b840191505092915050565b6000610d92601883610fad565b91507f63616c6c6572206d75737420626520746865206f776e657200000000000000006000830152602082019050919050565b6000610dd2601b83610fad565b91507f7374616b696e672062616c616e63652063616e6e6f74206265203000000000006000830152602082019050919050565b6000610e12601283610fad565b91507f616d6f756e742063616e6e6f74206265203000000000000000000000000000006000830152602082019050919050565b610e4e816111fe565b82525050565b6000602082019050610e696000830184610d1f565b92915050565b6000606082019050610e846000830186610d1f565b610e916020830185610d1f565b610e9e6040830184610e45565b949350505050565b6000604082019050610ebb6000830185610d1f565b610ec86020830184610e45565b9392505050565b6000602082019050610ee46000830184610d2e565b92915050565b6000602082019050610eff6000830184610d3d565b92915050565b60006020820190508181036000830152610f1f8184610d4c565b905092915050565b60006020820190508181036000830152610f4081610d85565b9050919050565b60006020820190508181036000830152610f6081610dc5565b9050919050565b60006020820190508181036000830152610f8081610e05565b9050919050565b6000602082019050610f9c6000830184610e45565b92915050565b600081519050919050565b600082825260208201905092915050565b6000610fc9826111fe565b9150610fd4836111fe565b9250827fffffffffffffffffffffffffffffffffffffffffffffffffffffffffffffffff03821115611009576110086112f0565b5b828201905092915050565b600061101f826111fe565b915061102a836111fe565b92508261103a5761103961131f565b5b828204905092915050565b6000611050826111d4565b915061105b836111d4565b9250827f7fffffffffffffffffffffffffffffffffffffffffffffffffffffffffffffff048211600084136000841316161561109a576110996112f0565b5b817f800000000000000000000000000000000000000000000000000000000000000005831260008412600084131616156110d7576110d66112f0565b5b827f80000000000000000000000000000000000000000000000000000000000000000582126000841360008412161615611114576111136112f0565b5b827f7fffffffffffffffffffffffffffffffffffffffffffffffffffffffffffffff0582126000841260008412161615611151576111506112f0565b5b828202905092915050565b6000611167826111fe565b9150611172836111fe565b9250817fffffffffffffffffffffffffffffffffffffffffffffffffffffffffffffffff04831182151516156111ab576111aa6112f0565b5b828202905092915050565b60006111c1826111de565b9050919050565b60008115159050919050565b6000819050919050565b600073ffffffffffffffffffffffffffffffffffffffff82169050919050565b6000819050919050565b600069ffffffffffffffffffff82169050919050565b600061122982611230565b9050919050565b600061123b826111de565b9050919050565b60005b83811015611260578082015181840152602081019050611245565b8381111561126f576000848401525b50505050565b6000600282049050600182168061128d57607f821691505b602082108114156112a1576112a061134e565b5b50919050565b60006112b2826111fe565b91507fffffffffffffffffffffffffffffffffffffffffffffffffffffffffffffffff8214156112e5576112e46112f0565b5b600182019050919050565b7f4e487b7100000000000000000000000000000000000000000000000000000000600052601160045260246000fd5b7f4e487b7100000000000000000000000000000000000000000000000000000000600052601260045260246000fd5b7f4e487b7100000000000000000000000000000000000000000000000000000000600052602260045260246000fd5b6000601f19601f8301169050919050565b611397816111b6565b81146113a257600080fd5b50565b6113ae816111c8565b81146113b957600080fd5b50565b6113c5816111d4565b81146113d057600080fd5b50565b6113dc816111fe565b81146113e757600080fd5b50565b6113f381611208565b81146113fe57600080fd5b5056fea2646970667358221220122eec4a091f5e989a5672ea628dba84082f32ea3fc5715d9a736157d2285b0f64736f6c63430008000033",
  "immutableReferences": {},
  "source": "// SPDX-License-Identifier: MIT\r\npragma solidity ^0.8.0;\r\n\r\nimport \"@openzeppelin/contracts/token/ERC20/IERC20.sol\";\r\nimport \"@chainlink/contracts/src/v0.8/interfaces/AggregatorV3Interface.sol\";\r\n\r\ncontract TokenFarm {\r\n    string public name = \"Dapp Token Farm\";\r\n    address public owner;\r\n    IERC20 public dappToken;\r\n    IERC20 public daiToken;\r\n\r\n    address[] public stakers;\r\n    mapping(address => uint) public stakingBalance;\r\n    mapping(address => bool) public hasStaked;\r\n    mapping(address => bool) public isStaking;\r\n\r\n    constructor(IERC20 _dappToken, IERC20 _daiToken) public {\r\n        dappToken = IERC20(_dappToken);\r\n        daiToken = IERC20(_daiToken);\r\n        owner = msg.sender;\r\n    }\r\n\r\n    function stakeTokens(uint _amount) public {\r\n        // Require amount greater than 0\r\n        require(_amount > 0, \"amount cannot be 0\");\r\n\r\n        // Trasnfer Mock Dai tokens to this contract for staking\r\n        daiToken.transferFrom(msg.sender, address(this), _amount);\r\n\r\n        // Update staking balance\r\n        stakingBalance[msg.sender] = stakingBalance[msg.sender] + _amount;\r\n\r\n        // Add user to stakers array *only* if they haven't staked already\r\n        if(!hasStaked[msg.sender]) {\r\n            stakers.push(msg.sender);\r\n        }\r\n\r\n        // Update staking status\r\n        isStaking[msg.sender] = true;\r\n        hasStaked[msg.sender] = true;\r\n    }\r\n\r\n    // Unstaking Tokens (Withdraw)\r\n    function unstakeTokens() public {\r\n        // Fetch staking balance\r\n        uint balance = stakingBalance[msg.sender];\r\n\r\n        // Require amount greater than 0\r\n        require(balance > 0, \"staking balance cannot be 0\");\r\n\r\n        // Transfer Mock Dai tokens to this contract for staking\r\n        daiToken.transfer(msg.sender, balance);\r\n\r\n        // Reset staking balance\r\n        stakingBalance[msg.sender] = 0;\r\n\r\n        // Update staking status\r\n        isStaking[msg.sender] = false;\r\n    }\r\n\r\n    // Issuing Tokens\r\n    function issueTokens() public {\r\n        // Only owner can call this function\r\n        require(msg.sender == owner, \"caller must be the owner\");\r\n\r\n        // Issue tokens to all stakers\r\n        for (uint i=0; i<stakers.length; i++) {\r\n            address recipient = stakers[i];\r\n            uint balance = stakingBalance[recipient];\r\n            if(balance > 0) {\r\n                dappToken.transfer(recipient, getCalculatedAmount(balance));\r\n            }\r\n        }\r\n    }\r\n    function getCalculatedAmount(uint256 balance) public view returns(uint){\r\n\r\n\r\n    AggregatorV3Interface priceFeed = AggregatorV3Interface(0x777A68032a88E5A84678A77Af2CD65A7b3c0775a);\r\n  \r\n    /** \r\n     * Returns the latest price\r\n     */\r\n\r\n        (\r\n            /*uint80 roundID*/,\r\n            int price,\r\n            /*uint startedAt*/,\r\n            /*uint timeStamp*/,\r\n            /*uint80 answeredInRound*/\r\n        ) = priceFeed.latestRoundData();\r\n        uint256 calculatedPrice=(balance*uint(price*10**10))/10**18;\r\n        return calculatedPrice;\r\n    \r\n    }\r\n}",
  "sourcePath": "C:\\Users\\moham\\OneDrive\\Desktop\\blockchaindev\\complete_project\\src\\contracts\\TokenFarm.sol",
  "compiler": {
    "name": "solc",
    "version": "0.8.0+commit.c7dfd78e.Emscripten.clang"
  },
  "schemaVersion": "3.4.8",
  "updatedAt": "2022-07-18T15:11:06.932Z",
  "networkType": "ethereum",
  "devdoc": {
    "kind": "dev",
    "methods": {},
    "version": 1
  },
  "userdoc": {
    "kind": "user",
    "methods": {},
    "version": 1
  }
}